:100000000C9434000C9446000C9446000C9446006A
:100010000C9446000C9446000C9446000C94460048
:100020000C9446000C9446000C9446000C94460038
:100030000C9446000C9446000C9446000C94460028
:100040000C9448000C9446000C9446000C94460016
:100050000C9446000C9446000C9446000C94460008
:100060000C9446000C94460011241FBECFEFD8E03C
:10007000DEBFCDBF21E0A0E0B1E001C01D92A13004
:10008000B207E1F70E9463000C9471000C94000029
:100090001F921FB61F9211248F939F93809100018E
:1000A0008F5F80930001809100018D3330F085B126
:1000B00090E2892785B9109200019F918F911F903E
:1000C0001FBE1F90189585B5856085BD80916E0017
:1000D000816080936E0016BC10920001259A78947E
:0600E000FFCFF894FFCFF2
:00000001FF
